{
  "_format": "hh-sol-artifact-1",
  "contractName": "Lock",
  "sourceName": "contracts/Lock.sol",
  "abi": [
    {
      "inputs": [
        {
          "internalType": "address",
          "name": "tokenAddress",
          "type": "address"
        }
      ],
      "stateMutability": "nonpayable",
      "type": "constructor"
    },
    {
      "inputs": [
        {
          "internalType": "uint256",
          "name": "amount",
          "type": "uint256"
        }
      ],
      "name": "lockTokens",
      "outputs": [],
      "stateMutability": "nonpayable",
      "type": "function"
    },
    {
      "inputs": [],
      "name": "lockerCount",
      "outputs": [
        {
          "internalType": "uint256",
          "name": "",
          "type": "uint256"
        }
      ],
      "stateMutability": "view",
      "type": "function"
    },
    {
      "inputs": [
        {
          "internalType": "address",
          "name": "",
          "type": "address"
        }
      ],
      "name": "lockers",
      "outputs": [
        {
          "internalType": "uint256",
          "name": "",
          "type": "uint256"
        }
      ],
      "stateMutability": "view",
      "type": "function"
    },
    {
      "inputs": [],
      "name": "totalLocked",
      "outputs": [
        {
          "internalType": "uint256",
          "name": "",
          "type": "uint256"
        }
      ],
      "stateMutability": "view",
      "type": "function"
    },
    {
      "inputs": [],
      "name": "withdrawTokens",
      "outputs": [],
      "stateMutability": "nonpayable",
      "type": "function"
    }
  ],
  "bytecode": "0x608060405234801561001057600080fd5b50604051610aa1380380610aa1833981810160405281019061003291906100db565b806000806101000a81548173ffffffffffffffffffffffffffffffffffffffff021916908373ffffffffffffffffffffffffffffffffffffffff16021790555050610108565b600080fd5b600073ffffffffffffffffffffffffffffffffffffffff82169050919050565b60006100a88261007d565b9050919050565b6100b88161009d565b81146100c357600080fd5b50565b6000815190506100d5816100af565b92915050565b6000602082840312156100f1576100f0610078565b5b60006100ff848285016100c6565b91505092915050565b61098a806101176000396000f3fe608060405234801561001057600080fd5b50600436106100575760003560e01c80632c8e7a211461005c578063568914121461008c5780636e27d889146100aa5780638d8f2adb146100c6578063ccd96eb6146100d0575b600080fd5b6100766004803603810190610071919061058b565b6100ee565b60405161008391906105d1565b60405180910390f35b610094610106565b6040516100a191906105d1565b60405180910390f35b6100c460048036038101906100bf9190610618565b61010c565b005b6100ce610308565b005b6100d8610522565b6040516100e591906105d1565b60405180910390f35b60036020528060005260406000206000915090505481565b60025481565b6000811161014f576040517f08c379a0000000000000000000000000000000000000000000000000000000008152600401610146906106c8565b60405180910390fd5b6000600360003373ffffffffffffffffffffffffffffffffffffffff1673ffffffffffffffffffffffffffffffffffffffff16815260200190815260200160002054116101b05760018060008282546101a89190610717565b925050819055505b80600260008282546101c29190610717565b9250508190555080600360003373ffffffffffffffffffffffffffffffffffffffff1673ffffffffffffffffffffffffffffffffffffffff16815260200190815260200160002060008282546102189190610717565b9250508190555060008060009054906101000a900473ffffffffffffffffffffffffffffffffffffffff1673ffffffffffffffffffffffffffffffffffffffff166323b872dd3330856040518463ffffffff1660e01b815260040161027f9392919061075a565b6020604051808303816000875af115801561029e573d6000803e3d6000fd5b505050506040513d601f19601f820116820180604052508101906102c291906107c9565b905080610304576040517f08c379a00000000000000000000000000000000000000000000000000000000081526004016102fb90610842565b60405180910390fd5b5050565b6000600360003373ffffffffffffffffffffffffffffffffffffffff1673ffffffffffffffffffffffffffffffffffffffff168152602001908152602001600020541161038a576040517f08c379a0000000000000000000000000000000000000000000000000000000008152600401610381906108ae565b60405180910390fd5b6000600360003373ffffffffffffffffffffffffffffffffffffffff1673ffffffffffffffffffffffffffffffffffffffff168152602001908152602001600020549050600360003373ffffffffffffffffffffffffffffffffffffffff1673ffffffffffffffffffffffffffffffffffffffff16815260200190815260200160002060009055806002600082825461042391906108ce565b925050819055506001600081548092919061043d90610902565b919050555060008054906101000a900473ffffffffffffffffffffffffffffffffffffffff1673ffffffffffffffffffffffffffffffffffffffff1663a9059cbb33836040518363ffffffff1660e01b815260040161049d92919061092b565b6020604051808303816000875af11580156104bc573d6000803e3d6000fd5b505050506040513d601f19601f820116820180604052508101906104e091906107c9565b61051f576040517f08c379a000000000000000000000000000000000000000000000000000000000815260040161051690610842565b60405180910390fd5b50565b60015481565b600080fd5b600073ffffffffffffffffffffffffffffffffffffffff82169050919050565b60006105588261052d565b9050919050565b6105688161054d565b811461057357600080fd5b50565b6000813590506105858161055f565b92915050565b6000602082840312156105a1576105a0610528565b5b60006105af84828501610576565b91505092915050565b6000819050919050565b6105cb816105b8565b82525050565b60006020820190506105e660008301846105c2565b92915050565b6105f5816105b8565b811461060057600080fd5b50565b600081359050610612816105ec565b92915050565b60006020828403121561062e5761062d610528565b5b600061063c84828501610603565b91505092915050565b600082825260208201905092915050565b7f546f6b656e20416d6f756e74206d75737420626520626967676572207468616e60008201527f205a65726f210000000000000000000000000000000000000000000000000000602082015250565b60006106b2602683610645565b91506106bd82610656565b604082019050919050565b600060208201905081810360008301526106e1816106a5565b9050919050565b7f4e487b7100000000000000000000000000000000000000000000000000000000600052601160045260246000fd5b6000610722826105b8565b915061072d836105b8565b9250828201905080821115610745576107446106e8565b5b92915050565b6107548161054d565b82525050565b600060608201905061076f600083018661074b565b61077c602083018561074b565b61078960408301846105c2565b949350505050565b60008115159050919050565b6107a681610791565b81146107b157600080fd5b50565b6000815190506107c38161079d565b92915050565b6000602082840312156107df576107de610528565b5b60006107ed848285016107b4565b91505092915050565b7f5472616e73666572204661696c65642100000000000000000000000000000000600082015250565b600061082c601083610645565b9150610837826107f6565b602082019050919050565b6000602082019050818103600083015261085b8161081f565b9050919050565b7f4e6f7420456e6f75676820546f6b656e21000000000000000000000000000000600082015250565b6000610898601183610645565b91506108a382610862565b602082019050919050565b600060208201905081810360008301526108c78161088b565b9050919050565b60006108d9826105b8565b91506108e4836105b8565b92508282039050818111156108fc576108fb6106e8565b5b92915050565b600061090d826105b8565b9150600082036109205761091f6106e8565b5b600182039050919050565b6000604082019050610940600083018561074b565b61094d60208301846105c2565b939250505056fea2646970667358221220b5b9d8a6fa144a96107cd45b01952faea274c3ca6169f429c7ce31a00d7350bb64736f6c63430008180033",
  "linkReferences": {},
  "deployedLinkReferences": {}
}